:0400000013EF00F00A
:06000800088282EF03F004
:100018000880E0CF01F001C0E0FF0890100079EF00
:0200280003F0E3
:0D0600000040504943233A20000D0A00003D
:10060E005CEC03F084EC03F06EEC03F0210E076E4D
:10061E00010E036E060E046E000E066E070E056EBC
:10062E0031EC03F0090E036E060E046E000E066E1C
:10063E00020E056E31EC03F0072A7F0E0718D8A4C0
:10064E002BEF03F02DEF03F00FEF03F00DEF03F0A0
:10065E0013EF00F040EF03F003C0F6FF04C0F7FF06
:10066E000800F5504AEC03F0034A042A0506D8A008
:10067E00060605500610D8A447EF03F049EF03F025
:10068E0033EF03F01200026EACA250EF03F052EF04
:10069E0003F04BEF03F002C0ADFFACA259EF03F035
:1006AE005BEF03F054EF03F01200700ED36E9B8CD1
:1006BE00D3A464EF03F066EF03F05FEF03F0D2AE66
:1006CE006BEF03F06DEF03F066EF03F01200948C06
:1006DE00948E0F013A9FAC98AC8AAB8EAB88080E05
:1006EE00AF6E120008900892000EF86E060EF76EAE
:0C06FE00000107EF03F008921100120049
:020000040020DA
:08000000FFFFFFFFFFFFFFFF00
:020000040030CA
:0E000000FF251F3FFFBF85FF0FC00FE00F4021
:00000001FF
